{"abi":[{"type":"constructor","inputs":[{"name":"_asset","type":"address","internalType":"address"},{"name":"_aavePool","type":"address","internalType":"address"},{"name":"_aToken","type":"address","internalType":"address"},{"name":"_vault","type":"address","internalType":"address"}],"stateMutability":"nonpayable"},{"type":"function","name":"MAX_RATIO","inputs":[],"outputs":[{"name":"","type":"uint256","internalType":"uint256"}],"stateMutability":"view"},{"type":"function","name":"aToken","inputs":[],"outputs":[{"name":"","type":"address","internalType":"address"}],"stateMutability":"view"},{"type":"function","name":"aavePool","inputs":[],"outputs":[{"name":"","type":"address","internalType":"address"}],"stateMutability":"view"},{"type":"function","name":"asset","inputs":[],"outputs":[{"name":"","type":"address","internalType":"contract IERC20"}],"stateMutability":"view"},{"type":"function","name":"emergencyWithdraw","inputs":[],"outputs":[],"stateMutability":"nonpayable"},{"type":"function","name":"getCurrentYieldRate","inputs":[],"outputs":[{"name":"","type":"uint256","internalType":"uint256"}],"stateMutability":"view"},{"type":"function","name":"getStrategyInfo","inputs":[],"outputs":[{"name":"_asset","type":"address","internalType":"address"},{"name":"_aavePool","type":"address","internalType":"address"},{"name":"_aToken","type":"address","internalType":"address"},{"name":"_totalInvested","type":"uint256","internalType":"uint256"},{"name":"_totalWithdrawn","type":"uint256","internalType":"uint256"},{"name":"_totalYield","type":"uint256","internalType":"uint256"},{"name":"_currentBalance","type":"uint256","internalType":"uint256"}],"stateMutability":"view"},{"type":"function","name":"harvest","inputs":[],"outputs":[{"name":"yieldAmount","type":"uint256","internalType":"uint256"}],"stateMutability":"nonpayable"},{"type":"function","name":"invest","inputs":[{"name":"amount","type":"uint256","internalType":"uint256"}],"outputs":[],"stateMutability":"nonpayable"},{"type":"function","name":"maxInvestmentRatio","inputs":[],"outputs":[{"name":"","type":"uint256","internalType":"uint256"}],"stateMutability":"view"},{"type":"function","name":"owner","inputs":[],"outputs":[{"name":"","type":"address","internalType":"address"}],"stateMutability":"view"},{"type":"function","name":"renounceOwnership","inputs":[],"outputs":[],"stateMutability":"nonpayable"},{"type":"function","name":"setMaxInvestmentRatio","inputs":[{"name":"_ratio","type":"uint256","internalType":"uint256"}],"outputs":[],"stateMutability":"nonpayable"},{"type":"function","name":"totalAssets","inputs":[],"outputs":[{"name":"","type":"uint256","internalType":"uint256"}],"stateMutability":"view"},{"type":"function","name":"totalInvested","inputs":[],"outputs":[{"name":"","type":"uint256","internalType":"uint256"}],"stateMutability":"view"},{"type":"function","name":"totalWithdrawn","inputs":[],"outputs":[{"name":"","type":"uint256","internalType":"uint256"}],"stateMutability":"view"},{"type":"function","name":"totalYield","inputs":[],"outputs":[{"name":"","type":"uint256","internalType":"uint256"}],"stateMutability":"view"},{"type":"function","name":"transferOwnership","inputs":[{"name":"newOwner","type":"address","internalType":"address"}],"outputs":[],"stateMutability":"nonpayable"},{"type":"function","name":"vault","inputs":[],"outputs":[{"name":"","type":"address","internalType":"address"}],"stateMutability":"view"},{"type":"function","name":"withdraw","inputs":[{"name":"amount","type":"uint256","internalType":"uint256"}],"outputs":[],"stateMutability":"nonpayable"},{"type":"event","name":"EmergencyWithdrawExecuted","inputs":[],"anonymous":false},{"type":"event","name":"Harvested","inputs":[{"name":"yield","type":"uint256","indexed":false,"internalType":"uint256"}],"anonymous":false},{"type":"event","name":"Invested","inputs":[{"name":"amount","type":"uint256","indexed":false,"internalType":"uint256"}],"anonymous":false},{"type":"event","name":"OwnershipTransferred","inputs":[{"name":"previousOwner","type":"address","indexed":true,"internalType":"address"},{"name":"newOwner","type":"address","indexed":true,"internalType":"address"}],"anonymous":false},{"type":"event","name":"Withdrawn","inputs":[{"name":"amount","type":"uint256","indexed":false,"internalType":"uint256"}],"anonymous":false},{"type":"error","name":"OwnableInvalidOwner","inputs":[{"name":"owner","type":"address","internalType":"address"}]},{"type":"error","name":"OwnableUnauthorizedAccount","inputs":[{"name":"account","type":"address","internalType":"address"}]},{"type":"error","name":"ReentrancyGuardReentrantCall","inputs":[]},{"type":"error","name":"SafeERC20FailedOperation","inputs":[{"name":"token","type":"address","internalType":"address"}]}],"bytecode":{"object":"0x61010034620002b157601f620015a938819003918201601f191683019291906001600160401b03841183851017620002b5578160809284926040968752833981010312620002b1576200005281620002c9565b906200006160208201620002c9565b6200007c606062000074868501620002c9565b9301620002c9565b9233156200029a575f8054336001600160a01b03198216811783558751936001600160a01b039384939192918416907f8be0079c531659141344cd1fd0a4f28419497f9722a3daafe3b4186f6b6457e09080a36001805561251c6005551691821562000268575080831615620002305780841615620001fb57841615620001c75760805260a05260c05260e052516112ca9081620002df823960805181818161025201528181610344015281816105b4015281816107800152818161087e01528181610ad3015261105d015260a05181818161039d01528181610507015281816105d8015281816108d401528181610b3801526110ac015260c051818181610211015281816104c4015281816105720152818161082b01528181610dc80152610fdd015260e05181818161010f015281816102c7015281816107d901528181610a9f0152610f930152f35b845162461bcd60e51b815260206004820152600d60248201526c125b9d985b1a59081d985d5b1d609a1b6044820152606490fd5b855162461bcd60e51b815260206004820152600e60248201526d24b73b30b634b21030aa37b5b2b760911b6044820152606490fd5b855162461bcd60e51b8152602060048201526011602482015270125b9d985b1a590810585d99481c1bdbdb607a1b6044820152606490fd5b62461bcd60e51b815260206004820152600d60248201526c125b9d985b1a5908185cdcd95d609a1b6044820152606490fd5b8451631e4fbdf760e01b81525f6004820152602490fd5b5f80fd5b634e487b7160e01b5f52604160045260245ffd5b51906001600160a01b0382168203620002b15756fe6080604090808252600480361015610015575f80fd5b5f3560e01c9182630141820514610e3f5750816301e1d11414610d9b5781632835c08b14610d7d5781632afcf48014610a715781632e1a7d4d146107af57816338d52e0f1461076c57816345c80801146107505781634641257d146107215781634b319713146107035781635216aeec146106e5578163630eb8ab146106c9578163715018a6146106725781638da5cb5b1461064b5781639613092d14610536578163a03e4bc3146104f3578163a0c1f15e146104b0578163cf7b7d231461044e578163db2e21bc146101d1578163f2fde38b14610142575063fbfa77cf146100fc575f80fd5b3461013e575f36600319011261013e57517f00000000000000000000000000000000000000000000000000000000000000006001600160a01b03168152602090f35b5f80fd5b823461013e57602036600319011261013e576001600160a01b0382358181169391929084900361013e5761017461120f565b83156101bb5750505f54826bffffffffffffffffffffffff60a01b8216175f55167f8be0079c531659141344cd1fd0a4f28419497f9722a3daafe3b4186f6b6457e05f80a3005b905f6024925191631e4fbdf760e01b8352820152fd5b823461013e575f36600319011261013e576101ea61120f565b80516370a0823160e01b8082523084830152926001600160a01b03916020919082816024817f000000000000000000000000000000000000000000000000000000000000000088165afa90811561044457908392915f91610415575b508061032a575b5060247f000000000000000000000000000000000000000000000000000000000000000096865195869384928352309083015288165afa92831561032157505f926102f3575b5050806102c1575b7f8b6c919fff20551f29abe02af60a5cc2f998a4c6710f7132c9620783cd00e0f65f80a1005b6102ec917f0000000000000000000000000000000000000000000000000000000000000000906111d1565b808061029b565b90809250813d831161031a575b61030a8183610e57565b8101031261013e57518280610293565b503d610300565b513d5f823e3d90fd5b8551631a4ca37b60e21b8582019081526001600160a01b037f0000000000000000000000000000000000000000000000000000000000000000881616602483015260448201929092523060648201529192505f9182919061039881608481015b03601f198101835282610e57565b5190827f00000000000000000000000000000000000000000000000000000000000000005af16103c6610f1b565b50156103d45781908661024d565b60649184519162461bcd60e51b8352820152601b60248201527f456d657267656e6379207769746864726177616c206661696c656400000000006044820152fd5b83819492503d831161043d575b61042c8183610e57565b8101031261013e5782915187610246565b503d610422565b85513d5f823e3d90fd5b90503461013e57602036600319011261013e5780359161046c61120f565b612710831161047c576005839055005b906020606492519162461bcd60e51b8352820152600e60248201526d0a4c2e8d2de40e8dede40d0d2ced60931b6044820152fd5b823461013e575f36600319011261013e57517f00000000000000000000000000000000000000000000000000000000000000006001600160a01b03168152602090f35b823461013e575f36600319011261013e57517f00000000000000000000000000000000000000000000000000000000000000006001600160a01b03168152602090f35b823461013e575f36600319011261013e57600254600354835483516370a0823160e01b815230958101959095526001600160a01b0393929091907f00000000000000000000000000000000000000000000000000000000000000008516602087602481845afa948515610321575f95610616575b60e09750805196807f00000000000000000000000000000000000000000000000000000000000000001688527f00000000000000000000000000000000000000000000000000000000000000001660208801528601526060850152608084015260a083015260c0820152f35b94506020873d602011610643575b8161063160209383610e57565b8101031261013e5760e09651946105aa565b3d9150610624565b823461013e575f36600319011261013e575f5490516001600160a01b039091168152602090f35b3461013e575f36600319011261013e5761068a61120f565b5f80546001600160a01b0319811682556001600160a01b03167f8be0079c531659141344cd1fd0a4f28419497f9722a3daafe3b4186f6b6457e08280a3005b823461013e575f36600319011261013e57602090516127108152f35b823461013e575f36600319011261013e576020906002549051908152f35b823461013e575f36600319011261013e576020906003549051908152f35b823461013e575f36600319011261013e5760209061073d6111ae565b610745610f88565b906001805551908152f35b823461013e575f36600319011261013e57602090516101f48152f35b823461013e575f36600319011261013e57517f00000000000000000000000000000000000000000000000000000000000000006001600160a01b03168152602090f35b823461013e576020908160031936011261013e578235906107ce6111ae565b6001600160a01b03937f0000000000000000000000000000000000000000000000000000000000000000906108063387841614610e8d565b610811841515610ecf565b82516370a0823160e01b80825230838301529086816024817f00000000000000000000000000000000000000000000000000000000000000008c165afa908115610444575f91610a44575b508015610a0857808611610a00575b508351631a4ca37b60e21b8782019081527f00000000000000000000000000000000000000000000000000000000000000009889166001600160a01b038116602484015260448301979097523060648301525f918291906108cf816084810161038a565b5190827f00000000000000000000000000000000000000000000000000000000000000005af16108fd610f1b565b50156109c657906024869285519687938492835230908301525afa9283156109bc575f9361096d575b5082610953917f430648de173157e069201c943adb2d4e340e7cf5b27b1b09c9cb852f03d63b56966111d1565b61095f82600354610f5a565b60035551908152a160018055005b9092508381813d83116109b5575b6109858183610e57565b8101031261013e5751917f430648de173157e069201c943adb2d4e340e7cf5b27b1b09c9cb852f03d63b56610926565b503d61097b565b82513d5f823e3d90fd5b835162461bcd60e51b8152808301879052601460248201527310585d99481dda5d1a191c985dc819985a5b195960621b6044820152606490fd5b94508761086b565b845162461bcd60e51b815280840188905260166024820152754e6f2061546f6b656e7320746f20776974686472617760501b6044820152606490fd5b90508681813d8311610a6a575b610a5b8183610e57565b8101031261013e57518861085c565b503d610a51565b90503461013e576020908160031936011261013e57803590610a916111ae565b6001600160a01b03610ac6337f0000000000000000000000000000000000000000000000000000000000000000831614610e8d565b610ad1831515610ecf565b7f00000000000000000000000000000000000000000000000000000000000000008181168651926370a0823160e01b8452308585015260249387818681865afa8015610d735787915f91610d42575b5010610d0957875163095ea7b360e01b8882018181527f00000000000000000000000000000000000000000000000000000000000000006001600160a01b038116888501908152602081018b905290969394918b915f9190610b8f90889060400103601f198101895288610e57565b86519082875af15f513d82610ced575b505015610c8d575b5050505086518681019163617ba03760e01b8352848201528560448201523060648201525f60848201526084815260c0810181811067ffffffffffffffff821117610c7b578852515f9283929083905af1610c00610f1b565b5015610c445750507fac9f7997c30b6a3cc9c74953898b5de154359339c7ec0d6d70ceb98e55db1a4b92610c3682600254610f5a565b60025551908152a160018055005b845162461bcd60e51b81529182018490526012908201527110585d99481cdd5c1c1b1e4819985a5b195960721b6044820152606490fd5b84604187634e487b7160e01b5f52525ffd5b8a51918a8301528516868201525f6044820152604481526080810181811067ffffffffffffffff821117610cdb57610cd2939291610ccd918c528261123a565b61123a565b5f808080610ba7565b86604189634e487b7160e01b5f52525ffd5b909150610d015750843b15155b5f80610b9f565b600114610cfa565b875162461bcd60e51b815280860188905260148186015273496e73756666696369656e742062616c616e636560601b6044820152606490fd5b809250898092503d8311610d6c575b610d5b8183610e57565b8101031261013e578690515f610b20565b503d610d51565b89513d5f823e3d90fd5b823461013e575f36600319011261013e576020906005549051908152f35b823461013e575f36600319011261013e5780516370a0823160e01b815230928101929092526020826024817f00000000000000000000000000000000000000000000000000000000000000006001600160a01b03165afa908115610321575f91610e0a575b6020925051908152f35b90506020823d602011610e37575b81610e2560209383610e57565b8101031261013e576020915190610e00565b3d9150610e18565b3461013e575f36600319011261013e57602091548152f35b90601f8019910116810190811067ffffffffffffffff821117610e7957604052565b634e487b7160e01b5f52604160045260245ffd5b15610e9457565b60405162461bcd60e51b815260206004820152601360248201527213db9b1e481d985d5b1d0818d85b8818d85b1b606a1b6044820152606490fd5b15610ed657565b60405162461bcd60e51b815260206004820152601d60248201527f416d6f756e74206d7573742062652067726561746572207468616e20300000006044820152606490fd5b3d15610f55573d9067ffffffffffffffff8211610e795760405191610f4a601f8201601f191660200184610e57565b82523d5f602084013e565b606090565b91908201809211610f6757565b634e487b7160e01b5f52601160045260245ffd5b91908203918211610f6757565b5f6001600160a01b037f0000000000000000000000000000000000000000000000000000000000000000610fbf3383831614610e8d565b6040516370a0823160e01b81523060048201526020919082816024817f000000000000000000000000000000000000000000000000000000000000000088165afa9081156111a3575f91611176575b50801561116d5761102460025460035490610f7b565b90818111611035575b505050505090565b6110429293949550610f7b565b604051631a4ca37b60e21b8482019081526001600160a01b037f0000000000000000000000000000000000000000000000000000000000000000968716166024830152604482018390523060648301529194915f918291906110a7816084810161038a565b5190827f00000000000000000000000000000000000000000000000000000000000000005af16110d5610f1b565b501561112857837f8e55ccfc9778ff8eba1646d765cf1982537ce0f9257054a17b48aad7452501839392611108926111d1565b61111483600454610f5a565b600455604051838152a15f8080808061102d565b60405162461bcd60e51b815260048101849052601c60248201527f41617665207969656c64207769746864726177616c206661696c6564000000006044820152606490fd5b50505050505f90565b90508281813d831161119c575b61118d8183610e57565b8101031261013e57515f61100e565b503d611183565b6040513d5f823e3d90fd5b6002600154146111bf576002600155565b604051633ee5aeb560e01b8152600490fd5b60405163a9059cbb60e01b60208201526001600160a01b0392909216602483015260448083019390935291815261120d91610ccd606483610e57565b565b5f546001600160a01b0316330361122257565b60405163118cdaa760e01b8152336004820152602490fd5b905f602091828151910182855af1156111a3575f513d61128b57506001600160a01b0381163b155b6112695750565b604051635274afe760e01b81526001600160a01b039091166004820152602490fd5b6001141561126256fea2646970667358221220441c3d4304dbe47aa28389dec06fd05c2481b5c4cbf6291449e3bfebf8e7743064736f6c63430008180033","linkReferences":{}},"methodIdentifiers":{"MAX_RATIO()":"630eb8ab","aToken()":"a0c1f15e","aavePool()":"a03e4bc3","asset()":"38d52e0f","emergencyWithdraw()":"db2e21bc","getCurrentYieldRate()":"45c80801","getStrategyInfo()":"9613092d","harvest()":"4641257d","invest(uint256)":"2afcf480","maxInvestmentRatio()":"2835c08b","owner()":"8da5cb5b","renounceOwnership()":"715018a6","setMaxInvestmentRatio(uint256)":"cf7b7d23","totalAssets()":"01e1d114","totalInvested()":"5216aeec","totalWithdrawn()":"4b319713","totalYield()":"01418205","transferOwnership(address)":"f2fde38b","vault()":"fbfa77cf","withdraw(uint256)":"2e1a7d4d"},"id":35}