{
  "abi": [
    {
      "type": "constructor",
      "inputs": [
        {
          "name": "_asset",
          "type": "address",
          "internalType": "address"
        }
      ],
      "stateMutability": "nonpayable"
    },
    {
      "type": "function",
      "name": "agentExecutor",
      "inputs": [],
      "outputs": [
        {
          "name": "",
          "type": "address",
          "internalType": "address"
        }
      ],
      "stateMutability": "view"
    },
    {
      "type": "function",
      "name": "asset",
      "inputs": [],
      "outputs": [
        {
          "name": "",
          "type": "address",
          "internalType": "contract IERC20"
        }
      ],
      "stateMutability": "view"
    },
    {
      "type": "function",
      "name": "convertToAssets",
      "inputs": [
        {
          "name": "sharesAmount",
          "type": "uint256",
          "internalType": "uint256"
        }
      ],
      "outputs": [
        {
          "name": "",
          "type": "uint256",
          "internalType": "uint256"
        }
      ],
      "stateMutability": "pure"
    },
    {
      "type": "function",
      "name": "convertToShares",
      "inputs": [
        {
          "name": "assets",
          "type": "uint256",
          "internalType": "uint256"
        }
      ],
      "outputs": [
        {
          "name": "",
          "type": "uint256",
          "internalType": "uint256"
        }
      ],
      "stateMutability": "pure"
    },
    {
      "type": "function",
      "name": "deposit",
      "inputs": [
        {
          "name": "assets",
          "type": "uint256",
          "internalType": "uint256"
        },
        {
          "name": "receiver",
          "type": "address",
          "internalType": "address"
        }
      ],
      "outputs": [
        {
          "name": "",
          "type": "uint256",
          "internalType": "uint256"
        }
      ],
      "stateMutability": "nonpayable"
    },
    {
      "type": "function",
      "name": "depositWithRisk",
      "inputs": [
        {
          "name": "amount",
          "type": "uint256",
          "internalType": "uint256"
        },
        {
          "name": "riskLevel",
          "type": "uint8",
          "internalType": "enum FiYieldVault.RiskLevel"
        }
      ],
      "outputs": [],
      "stateMutability": "nonpayable"
    },
    {
      "type": "function",
      "name": "getBalance",
      "inputs": [
        {
          "name": "user",
          "type": "address",
          "internalType": "address"
        }
      ],
      "outputs": [
        {
          "name": "",
          "type": "uint256",
          "internalType": "uint256"
        }
      ],
      "stateMutability": "view"
    },
    {
      "type": "function",
      "name": "getRiskLevel",
      "inputs": [
        {
          "name": "user",
          "type": "address",
          "internalType": "address"
        }
      ],
      "outputs": [
        {
          "name": "",
          "type": "uint8",
          "internalType": "enum FiYieldVault.RiskLevel"
        }
      ],
      "stateMutability": "view"
    },
    {
      "type": "function",
      "name": "invest",
      "inputs": [
        {
          "name": "amount",
          "type": "uint256",
          "internalType": "uint256"
        }
      ],
      "outputs": [],
      "stateMutability": "nonpayable"
    },
    {
      "type": "function",
      "name": "maxDeposit",
      "inputs": [
        {
          "name": "",
          "type": "address",
          "internalType": "address"
        }
      ],
      "outputs": [
        {
          "name": "",
          "type": "uint256",
          "internalType": "uint256"
        }
      ],
      "stateMutability": "pure"
    },
    {
      "type": "function",
      "name": "maxMint",
      "inputs": [
        {
          "name": "",
          "type": "address",
          "internalType": "address"
        }
      ],
      "outputs": [
        {
          "name": "",
          "type": "uint256",
          "internalType": "uint256"
        }
      ],
      "stateMutability": "pure"
    },
    {
      "type": "function",
      "name": "maxRedeem",
      "inputs": [
        {
          "name": "owner",
          "type": "address",
          "internalType": "address"
        }
      ],
      "outputs": [
        {
          "name": "",
          "type": "uint256",
          "internalType": "uint256"
        }
      ],
      "stateMutability": "view"
    },
    {
      "type": "function",
      "name": "maxWithdraw",
      "inputs": [
        {
          "name": "owner",
          "type": "address",
          "internalType": "address"
        }
      ],
      "outputs": [
        {
          "name": "",
          "type": "uint256",
          "internalType": "uint256"
        }
      ],
      "stateMutability": "view"
    },
    {
      "type": "function",
      "name": "owner",
      "inputs": [],
      "outputs": [
        {
          "name": "",
          "type": "address",
          "internalType": "address"
        }
      ],
      "stateMutability": "view"
    },
    {
      "type": "function",
      "name": "previewDeposit",
      "inputs": [
        {
          "name": "assets",
          "type": "uint256",
          "internalType": "uint256"
        }
      ],
      "outputs": [
        {
          "name": "",
          "type": "uint256",
          "internalType": "uint256"
        }
      ],
      "stateMutability": "pure"
    },
    {
      "type": "function",
      "name": "previewMint",
      "inputs": [
        {
          "name": "sharesAmount",
          "type": "uint256",
          "internalType": "uint256"
        }
      ],
      "outputs": [
        {
          "name": "",
          "type": "uint256",
          "internalType": "uint256"
        }
      ],
      "stateMutability": "pure"
    },
    {
      "type": "function",
      "name": "previewRedeem",
      "inputs": [
        {
          "name": "sharesAmount",
          "type": "uint256",
          "internalType": "uint256"
        }
      ],
      "outputs": [
        {
          "name": "",
          "type": "uint256",
          "internalType": "uint256"
        }
      ],
      "stateMutability": "pure"
    },
    {
      "type": "function",
      "name": "previewWithdraw",
      "inputs": [
        {
          "name": "assets",
          "type": "uint256",
          "internalType": "uint256"
        }
      ],
      "outputs": [
        {
          "name": "",
          "type": "uint256",
          "internalType": "uint256"
        }
      ],
      "stateMutability": "pure"
    },
    {
      "type": "function",
      "name": "rebalance",
      "inputs": [
        {
          "name": "user",
          "type": "address",
          "internalType": "address"
        },
        {
          "name": "fromProtocol",
          "type": "address",
          "internalType": "address"
        },
        {
          "name": "toProtocol",
          "type": "address",
          "internalType": "address"
        },
        {
          "name": "amount",
          "type": "uint256",
          "internalType": "uint256"
        }
      ],
      "outputs": [],
      "stateMutability": "nonpayable"
    },
    {
      "type": "function",
      "name": "redeem",
      "inputs": [
        {
          "name": "sharesAmount",
          "type": "uint256",
          "internalType": "uint256"
        },
        {
          "name": "receiver",
          "type": "address",
          "internalType": "address"
        },
        {
          "name": "owner",
          "type": "address",
          "internalType": "address"
        }
      ],
      "outputs": [
        {
          "name": "",
          "type": "uint256",
          "internalType": "uint256"
        }
      ],
      "stateMutability": "nonpayable"
    },
    {
      "type": "function",
      "name": "renounceOwnership",
      "inputs": [],
      "outputs": [],
      "stateMutability": "nonpayable"
    },
    {
      "type": "function",
      "name": "sendShares",
      "inputs": [
        {
          "name": "to",
          "type": "address",
          "internalType": "address"
        },
        {
          "name": "sharesAmount",
          "type": "uint256",
          "internalType": "uint256"
        }
      ],
      "outputs": [],
      "stateMutability": "nonpayable"
    },
    {
      "type": "function",
      "name": "setAgentExecutor",
      "inputs": [
        {
          "name": "_agentExecutor",
          "type": "address",
          "internalType": "address"
        }
      ],
      "outputs": [],
      "stateMutability": "nonpayable"
    },
    {
      "type": "function",
      "name": "setStrategy",
      "inputs": [
        {
          "name": "_strategy",
          "type": "address",
          "internalType": "address"
        }
      ],
      "outputs": [],
      "stateMutability": "nonpayable"
    },
    {
      "type": "function",
      "name": "shares",
      "inputs": [
        {
          "name": "",
          "type": "address",
          "internalType": "address"
        }
      ],
      "outputs": [
        {
          "name": "",
          "type": "uint256",
          "internalType": "uint256"
        }
      ],
      "stateMutability": "view"
    },
    {
      "type": "function",
      "name": "strategy",
      "inputs": [],
      "outputs": [
        {
          "name": "",
          "type": "address",
          "internalType": "address"
        }
      ],
      "stateMutability": "view"
    },
    {
      "type": "function",
      "name": "totalAssets",
      "inputs": [],
      "outputs": [
        {
          "name": "",
          "type": "uint256",
          "internalType": "uint256"
        }
      ],
      "stateMutability": "view"
    },
    {
      "type": "function",
      "name": "totalSupply",
      "inputs": [],
      "outputs": [
        {
          "name": "",
          "type": "uint256",
          "internalType": "uint256"
        }
      ],
      "stateMutability": "view"
    },
    {
      "type": "function",
      "name": "transferOwnership",
      "inputs": [
        {
          "name": "newOwner",
          "type": "address",
          "internalType": "address"
        }
      ],
      "outputs": [],
      "stateMutability": "nonpayable"
    },
    {
      "type": "function",
      "name": "userBalances",
      "inputs": [
        {
          "name": "",
          "type": "address",
          "internalType": "address"
        }
      ],
      "outputs": [
        {
          "name": "",
          "type": "uint256",
          "internalType": "uint256"
        }
      ],
      "stateMutability": "view"
    },
    {
      "type": "function",
      "name": "userRiskLevels",
      "inputs": [
        {
          "name": "",
          "type": "address",
          "internalType": "address"
        }
      ],
      "outputs": [
        {
          "name": "",
          "type": "uint8",
          "internalType": "enum FiYieldVault.RiskLevel"
        }
      ],
      "stateMutability": "view"
    },
    {
      "type": "function",
      "name": "withdraw",
      "inputs": [
        {
          "name": "amount",
          "type": "uint256",
          "internalType": "uint256"
        }
      ],
      "outputs": [],
      "stateMutability": "nonpayable"
    },
    {
      "type": "event",
      "name": "Deposit",
      "inputs": [
        {
          "name": "user",
          "type": "address",
          "indexed": true,
          "internalType": "address"
        },
        {
          "name": "amount",
          "type": "uint256",
          "indexed": false,
          "internalType": "uint256"
        },
        {
          "name": "riskLevel",
          "type": "uint8",
          "indexed": false,
          "internalType": "enum FiYieldVault.RiskLevel"
        }
      ],
      "anonymous": false
    },
    {
      "type": "event",
      "name": "Invested",
      "inputs": [
        {
          "name": "amount",
          "type": "uint256",
          "indexed": false,
          "internalType": "uint256"
        }
      ],
      "anonymous": false
    },
    {
      "type": "event",
      "name": "OwnershipTransferred",
      "inputs": [
        {
          "name": "previousOwner",
          "type": "address",
          "indexed": true,
          "internalType": "address"
        },
        {
          "name": "newOwner",
          "type": "address",
          "indexed": true,
          "internalType": "address"
        }
      ],
      "anonymous": false
    },
    {
      "type": "event",
      "name": "Rebalanced",
      "inputs": [
        {
          "name": "user",
          "type": "address",
          "indexed": true,
          "internalType": "address"
        },
        {
          "name": "fromProtocol",
          "type": "address",
          "indexed": false,
          "internalType": "address"
        },
        {
          "name": "toProtocol",
          "type": "address",
          "indexed": false,
          "internalType": "address"
        },
        {
          "name": "amount",
          "type": "uint256",
          "indexed": false,
          "internalType": "uint256"
        }
      ],
      "anonymous": false
    },
    {
      "type": "event",
      "name": "StrategySet",
      "inputs": [
        {
          "name": "strategy",
          "type": "address",
          "indexed": true,
          "internalType": "address"
        }
      ],
      "anonymous": false
    },
    {
      "type": "event",
      "name": "Withdraw",
      "inputs": [
        {
          "name": "user",
          "type": "address",
          "indexed": true,
          "internalType": "address"
        },
        {
          "name": "amount",
          "type": "uint256",
          "indexed": false,
          "internalType": "uint256"
        }
      ],
      "anonymous": false
    },
    {
      "type": "error",
      "name": "OwnableInvalidOwner",
      "inputs": [
        {
          "name": "owner",
          "type": "address",
          "internalType": "address"
        }
      ]
    },
    {
      "type": "error",
      "name": "OwnableUnauthorizedAccount",
      "inputs": [
        {
          "name": "account",
          "type": "address",
          "internalType": "address"
        }
      ]
    },
    {
      "type": "error",
      "name": "ReentrancyGuardReentrantCall",
      "inputs": []
    }
  ],
  "bytecode": {
    "object": "0x60a0346100eb57601f61147a38819003918201601f19168301916001600160401b038311848410176100ef578084926020946040528339810103126100eb57516001600160a01b0390818116908190036100eb5733156100d3575f543360018060a01b03198216175f55604051923391167f8be0079c531659141344cd1fd0a4f28419497f9722a3daafe3b4186f6b6457e05f80a3600180556080526113769081610104823960805181818161050f015281816107590152818161093301528181610a3f01528181610b820152610cbd0152f35b604051631e4fbdf760e01b81525f6004820152602490fd5b5f80fd5b634e487b7160e01b5f52604160045260245ffdfe6080604090808252600480361015610015575f80fd5b5f3560e01c91826301e1d1141461107f5750816306e506cb14610f5857816307a2d13a1461023d5781630a28a4771461023d5781631615f2d4146103ac57816318160ddd14610f3a57816326224c6414610f055781632afcf48014610c495781632e1a7d4d14610ad457816333a100ca14610a6e57816338d52e0f14610a2b578163402d267d146103ed5781634cdad5061461023d5781636e553f65146108b5578163715018a61461085e5781637e08a164146106f05781638da5cb5b146106c9578163968ddd1714610686578163a8c62e761461065e578163b3d7f6b91461023d578163ba087652146103f2578163c63d75b6146103ed578163c6e6f5921461023d578163ce7c2ac214610375578163ce96cb77146101ab578163d241cce3146103ac578163d905777e14610375578163ed4e9a4114610242578163ef8b30f71461023d578163f2fde38b146101b057508063f8b2cb4f146101ab5763fe18c79814610180575f80fd5b346101a7575f3660031901126101a75760025490516001600160a01b039091168152602090f35b5f80fd5b61113e565b9050346101a75760203660031901126101a7576101cb611099565b906101d4611315565b6001600160a01b039182169283156102275750505f54826bffffffffffffffffffffffff60a01b8216175f55167f8be0079c531659141344cd1fd0a4f28419497f9722a3daafe3b4186f6b6457e05f80a3005b905f6024925191631e4fbdf760e01b8352820152fd5b6110db565b82346101a757806003193601126101a75761025b611099565b90602435916102686112f2565b6001600160a01b031691821561033e576103377ff763e680fce25a97ffd55d8b705370c98b47b2285f7b3b2900c43606fd41804593946102a9831515611223565b335f52602090600682526102c284865f205410156112b0565b335f5260068252845f206102d78582546111c4565b9055865f5260068252845f206102ee8582546112a3565b9055335f52808252845f206103048582546111c4565b9055865f528152835f206103198482546112a3565b9055335f526005815260ff845f2054169084519384528301906110f8565ba260018055005b815162461bcd60e51b81526020818601526011602482015270125b9d985b1a59081c9958da5c1a595b9d607a1b6044820152606490fd5b82346101a75760203660031901126101a7576020906001600160a01b0361039a611099565b165f5260068252805f20549051908152f35b82346101a75760203660031901126101a7576020906001600160a01b036103d1611099565b165f52600582526103eb60ff825f205416915180926110f8565bf35b611119565b82346101a75760603660031901126101a75781359061040f6110af565b6104176110c5565b906104206112f2565b831561062a576001600160a01b0391829061043e8383161515611264565b16918233036105f657835163673e156160e11b8152868101849052602096908781602481305afa9081156105ec579188939188935f916105b3575b5061050b959161048c5f928611156112b0565b8782528086528882206104a08682546111c4565b9055878252600686528882206104b78682546111c4565b90556104c5856007546111c4565b6007556104d4856008546111c4565b600855885163a9059cbb60e01b81526001600160a01b03909316908301908152602081019490945290948593849291839160400190565b03927f0000000000000000000000000000000000000000000000000000000000000000165af19081156105a9579061054a915f9161057c575b506111e5565b7f884edad9ce6fa2440d8a54cc123490eb96d2768479d49ff9c7366125a9424364848351858152a26001805551908152f35b61059c9150863d88116105a2575b6105948183611176565b8101906111ac565b86610544565b503d61058a565b83513d5f823e3d90fd5b94809294508591503d83116105e5575b6105cd8183611176565b810103126101a757915187928792909161050b610479565b503d6105c3565b86513d5f823e3d90fd5b835162461bcd60e51b8152602081880152600e60248201526d139bdd08185d5d1a1bdc9a5e995960921b6044820152606490fd5b825162461bcd60e51b8152602081870152600e60248201526d496e76616c69642073686172657360901b6044820152606490fd5b82346101a7575f3660031901126101a75760035490516001600160a01b039091168152602090f35b346101a75760203660031901126101a75761069f611099565b6106a7611315565b600280546001600160a01b0319166001600160a01b0392909216919091179055005b82346101a7575f3660031901126101a7575f5490516001600160a01b039091168152602090f35b82346101a757806003193601126101a7578135916024359060038210156101a7576107196112f2565b610724841515611223565b82516323b872dd60e01b815233828201908152306020828101919091526040820187905292919083908290819060600103815f7f00000000000000000000000000000000000000000000000000000000000000006001600160a01b03165af190811561085457916107c361082e94927ff763e680fce25a97ffd55d8b705370c98b47b2285f7b3b2900c43606fd4180459796945f9161083757506111e5565b335f528152835f206107d68782546112a3565b9055335f5260058152835f2060ff1981541660ff841617905560068152835f206108018782546112a3565b905561080f866007546112a3565b60075561081e866008546112a3565b60085583519586528501906110f8565b3392a260018055005b61084e9150843d86116105a2576105948183611176565b89610544565b85513d5f823e3d90fd5b346101a7575f3660031901126101a757610876611315565b5f80546001600160a01b0319811682556001600160a01b03167f8be0079c531659141344cd1fd0a4f28419497f9722a3daafe3b4186f6b6457e08280a3005b82346101a757806003193601126101a7578135906108d16110af565b926108da6112f2565b6108e5831515611223565b6001600160a01b03938416906108fc821515611264565b82516323b872dd60e01b815233828201908152306020828101919091526040820187905296879183919082905f90829060600103927f0000000000000000000000000000000000000000000000000000000000000000165af1908115610a21579061096d915f91610a0457506111e5565b815f528452815f206109808482546112a3565b9055805f5260068452815f206109978482546112a3565b90556109a5836007546112a3565b6007556109b4836008546112a3565b600855805f5260058452815f20600160ff198254161790557ff763e680fce25a97ffd55d8b705370c98b47b2285f7b3b2900c43606fd418045828051858152600187820152a26001805551908152f35b610a1b9150873d89116105a2576105948183611176565b87610544565b84513d5f823e3d90fd5b82346101a7575f3660031901126101a757517f00000000000000000000000000000000000000000000000000000000000000006001600160a01b03168152602090f35b346101a75760203660031901126101a757610a87611099565b610a8f611315565b600380546001600160a01b0319166001600160a01b039290921691821790557fe70d79dad95c835bdd87e9cf4665651c9e5abb3b756e4fd2bf45f29c95c3aa405f80a2005b9050346101a7576020806003193601126101a757813591610af36112f2565b335f5280825282845f205410610c11578183610b7d92335f52808352865f20610b1d8382546111c4565b9055335f5260068352865f20610b348382546111c4565b9055610b42826007546111c4565b600755610b51826008546111c4565b600855865163a9059cbb60e01b8152339181019182526020820192909252909283918291604090910190565b03815f7f00000000000000000000000000000000000000000000000000000000000000006001600160a01b03165af1908115610a21577f884edad9ce6fa2440d8a54cc123490eb96d2768479d49ff9c7366125a9424364939491610be7915f91610bf457506111e5565b519283523392a260018055005b610c0b9150843d86116105a2576105948183611176565b5f610544565b60649184519162461bcd60e51b83528201526014602482015273496e73756666696369656e742062616c616e636560601b6044820152fd5b9050346101a757602090816003193601126101a757600254813591906001600160a01b039081163303610eca5780600354168015610e94576008548411610e5b57855163a9059cbb60e01b81526001600160a01b039091168382019081526020810185905285908290819060400103815f867f0000000000000000000000000000000000000000000000000000000000000000165af19081156105ec575f91610e3e575b5015610dfb57600354168451908482016255f9e960e71b815284602484015260248352606083019267ffffffffffffffff9381811085821117610de8578852515f9283929083905af1903d15610de2573d908111610dcf57855190610d5b601f8201601f1916870183611176565b81525f853d92013e5b15610d9357507fac9f7997c30b6a3cc9c74953898b5de154359339c7ec0d6d70ceb98e55db1a4b9251908152a1005b835162461bcd60e51b8152908101839052601660248201527514dd1c985d1959de481a5b9d995cdd0819985a5b195960521b6044820152606490fd5b604183634e487b7160e01b5f525260245ffd5b50610d64565b604186634e487b7160e01b5f525260245ffd5b845162461bcd60e51b8152808301859052601b60248201527f5472616e7366657220746f207374726174656779206661696c656400000000006044820152606490fd5b610e559150853d87116105a2576105948183611176565b5f610ced565b855162461bcd60e51b81528084018690526013602482015272496e73756666696369656e742061737365747360681b6044820152606490fd5b855162461bcd60e51b8152808401869052601060248201526f14dd1c985d1959de481b9bdd081cd95d60821b6044820152606490fd5b845162461bcd60e51b8152808301859052601560248201527413db9b1e481859d95b9d0818d85b881a5b9d995cdd605a1b6044820152606490fd5b82346101a75760203660031901126101a7576020916001600160a01b03610f2a611099565b165f528252805f20549051908152f35b82346101a7575f3660031901126101a7576020906007549051908152f35b9050346101a75760803660031901126101a757610f73611099565b610f7b6110af565b610f836110c5565b6002549092606435916001600160a01b0391908216330361103c571693845f528060205281865f205410610ff9575093516001600160a01b039182168152911660208201526040810192909252907fe26365f32dd2a1a1a322c5fba39361fcd955999bdabd2121b6864894790cded490606090a2005b606490602087519162461bcd60e51b8352820152601960248201527f496e73756666696369656e7420757365722062616c616e6365000000000000006044820152fd5b865162461bcd60e51b8152602081880152601860248201527f4f6e6c79206167656e742063616e20726562616c616e636500000000000000006044820152606490fd5b346101a7575f3660031901126101a7576020906008548152f35b600435906001600160a01b03821682036101a757565b602435906001600160a01b03821682036101a757565b604435906001600160a01b03821682036101a757565b346101a75760203660031901126101a75760206040516004358152f35b9060038210156111055752565b634e487b7160e01b5f52602160045260245ffd5b346101a75760203660031901126101a757611132611099565b5060206040515f198152f35b346101a75760203660031901126101a7576001600160a01b0361115f611099565b165f526004602052602060405f2054604051908152f35b90601f8019910116810190811067ffffffffffffffff82111761119857604052565b634e487b7160e01b5f52604160045260245ffd5b908160209103126101a7575180151581036101a75790565b919082039182116111d157565b634e487b7160e01b5f52601160045260245ffd5b156111ec57565b60405162461bcd60e51b815260206004820152600f60248201526e151c985b9cd9995c8819985a5b1959608a1b6044820152606490fd5b1561122a57565b60405162461bcd60e51b81526020600482015260126024820152710416d6f756e74206d757374206265203e20360741b6044820152606490fd5b1561126b57565b60405162461bcd60e51b815260206004820152601060248201526f24b73b30b634b2103932b1b2b4bb32b960811b6044820152606490fd5b919082018092116111d157565b156112b757565b60405162461bcd60e51b8152602060048201526013602482015272496e73756666696369656e742073686172657360681b6044820152606490fd5b600260015414611303576002600155565b604051633ee5aeb560e01b8152600490fd5b5f546001600160a01b0316330361132857565b60405163118cdaa760e01b8152336004820152602490fdfea26469706673582212203ffe1f40bed62e05ecea9def577285af74889fa5ab8e05d61271f78d3a12927364736f6c63430008180033",
    "linkReferences": {}
  },
  "methodIdentifiers": {
    "agentExecutor()": "fe18c798",
    "asset()": "38d52e0f",
    "convertToAssets(uint256)": "07a2d13a",
    "convertToShares(uint256)": "c6e6f592",
    "deposit(uint256,address)": "6e553f65",
    "depositWithRisk(uint256,uint8)": "7e08a164",
    "getBalance(address)": "f8b2cb4f",
    "getRiskLevel(address)": "1615f2d4",
    "invest(uint256)": "2afcf480",
    "maxDeposit(address)": "402d267d",
    "maxMint(address)": "c63d75b6",
    "maxRedeem(address)": "d905777e",
    "maxWithdraw(address)": "ce96cb77",
    "owner()": "8da5cb5b",
    "previewDeposit(uint256)": "ef8b30f7",
    "previewMint(uint256)": "b3d7f6b9",
    "previewRedeem(uint256)": "4cdad506",
    "previewWithdraw(uint256)": "0a28a477",
    "rebalance(address,address,address,uint256)": "06e506cb",
    "redeem(uint256,address,address)": "ba087652",
    "renounceOwnership()": "715018a6",
    "sendShares(address,uint256)": "ed4e9a41",
    "setAgentExecutor(address)": "968ddd17",
    "setStrategy(address)": "33a100ca",
    "shares(address)": "ce7c2ac2",
    "strategy()": "a8c62e76",
    "totalAssets()": "01e1d114",
    "totalSupply()": "18160ddd",
    "transferOwnership(address)": "f2fde38b",
    "userBalances(address)": "26224c64",
    "userRiskLevels(address)": "d241cce3",
    "withdraw(uint256)": "2e1a7d4d"
  },
  "id": 43
}