{"abi":[{"type":"constructor","inputs":[],"stateMutability":"nonpayable"},{"type":"function","name":"MOCK_APY","inputs":[],"outputs":[{"name":"","type":"uint256","internalType":"uint256"}],"stateMutability":"view"},{"type":"function","name":"getReserveData","inputs":[{"name":"asset","type":"address","internalType":"address"}],"outputs":[{"name":"configuration","type":"uint256","internalType":"uint256"},{"name":"liquidityIndex","type":"uint128","internalType":"uint128"},{"name":"currentLiquidityRate","type":"uint128","internalType":"uint128"},{"name":"variableBorrowIndex","type":"uint128","internalType":"uint128"},{"name":"currentVariableBorrowRate","type":"uint128","internalType":"uint128"},{"name":"currentStableBorrowRate","type":"uint128","internalType":"uint128"},{"name":"lastUpdateTimestamp","type":"uint40","internalType":"uint40"},{"name":"id","type":"uint16","internalType":"uint16"},{"name":"aTokenAddress","type":"address","internalType":"address"},{"name":"stableDebtTokenAddress","type":"address","internalType":"address"},{"name":"variableDebtTokenAddress","type":"address","internalType":"address"},{"name":"interestRateStrategyAddress","type":"address","internalType":"address"},{"name":"accruedToTreasury","type":"uint128","internalType":"uint128"},{"name":"unbacked","type":"uint128","internalType":"uint128"},{"name":"isolationModeTotalDebt","type":"uint128","internalType":"uint128"}],"stateMutability":"view"},{"type":"function","name":"getTotalSupply","inputs":[{"name":"asset","type":"address","internalType":"address"}],"outputs":[{"name":"","type":"uint256","internalType":"uint256"}],"stateMutability":"view"},{"type":"function","name":"getUserAccountData","inputs":[{"name":"user","type":"address","internalType":"address"}],"outputs":[{"name":"totalCollateralETH","type":"uint256","internalType":"uint256"},{"name":"totalDebtETH","type":"uint256","internalType":"uint256"},{"name":"availableBorrowsETH","type":"uint256","internalType":"uint256"},{"name":"currentLiquidationThreshold","type":"uint256","internalType":"uint256"},{"name":"ltv","type":"uint256","internalType":"uint256"},{"name":"healthFactor","type":"uint256","internalType":"uint256"}],"stateMutability":"view"},{"type":"function","name":"getUserBalance","inputs":[{"name":"asset","type":"address","internalType":"address"},{"name":"user","type":"address","internalType":"address"}],"outputs":[{"name":"","type":"uint256","internalType":"uint256"}],"stateMutability":"view"},{"type":"function","name":"lastUpdateTime","inputs":[{"name":"","type":"address","internalType":"address"},{"name":"","type":"address","internalType":"address"}],"outputs":[{"name":"","type":"uint256","internalType":"uint256"}],"stateMutability":"view"},{"type":"function","name":"liquidityRate","inputs":[{"name":"","type":"address","internalType":"address"}],"outputs":[{"name":"","type":"uint256","internalType":"uint256"}],"stateMutability":"view"},{"type":"function","name":"setLiquidityRate","inputs":[{"name":"asset","type":"address","internalType":"address"},{"name":"rate","type":"uint256","internalType":"uint256"}],"outputs":[],"stateMutability":"nonpayable"},{"type":"function","name":"stableBorrowRate","inputs":[{"name":"","type":"address","internalType":"address"}],"outputs":[{"name":"","type":"uint256","internalType":"uint256"}],"stateMutability":"view"},{"type":"function","name":"supply","inputs":[{"name":"asset","type":"address","internalType":"address"},{"name":"amount","type":"uint256","internalType":"uint256"},{"name":"onBehalfOf","type":"address","internalType":"address"},{"name":"referralCode","type":"uint16","internalType":"uint16"}],"outputs":[],"stateMutability":"nonpayable"},{"type":"function","name":"totalBorrow","inputs":[{"name":"","type":"address","internalType":"address"}],"outputs":[{"name":"","type":"uint256","internalType":"uint256"}],"stateMutability":"view"},{"type":"function","name":"totalSupply","inputs":[{"name":"","type":"address","internalType":"address"}],"outputs":[{"name":"","type":"uint256","internalType":"uint256"}],"stateMutability":"view"},{"type":"function","name":"userSupply","inputs":[{"name":"","type":"address","internalType":"address"},{"name":"","type":"address","internalType":"address"}],"outputs":[{"name":"","type":"uint256","internalType":"uint256"}],"stateMutability":"view"},{"type":"function","name":"variableBorrowRate","inputs":[{"name":"","type":"address","internalType":"address"}],"outputs":[{"name":"","type":"uint256","internalType":"uint256"}],"stateMutability":"view"},{"type":"function","name":"withdraw","inputs":[{"name":"asset","type":"address","internalType":"address"},{"name":"amount","type":"uint256","internalType":"uint256"},{"name":"to","type":"address","internalType":"address"}],"outputs":[{"name":"","type":"uint256","internalType":"uint256"}],"stateMutability":"nonpayable"},{"type":"event","name":"Supply","inputs":[{"name":"asset","type":"address","indexed":true,"internalType":"address"},{"name":"amount","type":"uint256","indexed":false,"internalType":"uint256"},{"name":"onBehalfOf","type":"address","indexed":true,"internalType":"address"},{"name":"referralCode","type":"uint16","indexed":false,"internalType":"uint16"}],"anonymous":false},{"type":"event","name":"Withdraw","inputs":[{"name":"asset","type":"address","indexed":true,"internalType":"address"},{"name":"amount","type":"uint256","indexed":false,"internalType":"uint256"},{"name":"to","type":"address","indexed":true,"internalType":"address"}],"anonymous":false},{"type":"error","name":"SafeERC20FailedOperation","inputs":[{"name":"token","type":"address","internalType":"address"}]}],"bytecode":{"object":"0x6080806040523461008d575f80526101f47fac33ff75c19e70fe83507db0d683fd3465c996598dc972688b7ace676c89077b5561012c7f3617319a054d772f909f7c479a2cebe5066e836a939412e32403c99029b92eff5560046020526101907f17ef568e3e12ab5b9c7254a8d58478811de00f9e6eb34345acd53bf8fd09d3ec556109a390816100928239f35b5f80fdfe6080604090808252600480361015610015575f80fd5b5f3560e01c9182631bfd9e6714610766575081632f88b48d1461071d57816335ea6a751461064e578163617ba037146104ef5781636805d6ad1461049657816368da10ae1461047157816369328dec1461029b578163be78ed6414610268578163bf92857c14610221578163c4cffa4e146101ec57508063dad577e5146101b5578063dd6d19541461017e578063e4dc2aa414610148578063f1943297146100ff5763fe3a8bd2146100c5575f80fd5b346100fb5760203660031901126100fb576020906001600160a01b036100e9610780565b165f5260028252805f20549051908152f35b5f80fd5b50346100fb57806003193601126100fb5760209061011b610780565b610123610796565b9060018060a01b038091165f5260068452825f2091165f528252805f20549051908152f35b50346100fb5760203660031901126100fb576020906001600160a01b0361016d610780565b165f525f8252805f20549051908152f35b50346100fb5760203660031901126100fb576020906001600160a01b036101a3610780565b165f5260018252805f20549051908152f35b50346100fb5760203660031901126100fb576020906001600160a01b036101da610780565b165f5260038252805f20549051908152f35b82346100fb5760203660031901126100fb576020916001600160a01b03610211610780565b165f528252805f20549051908152f35b82346100fb5760203660031901126100fb5760c09061023e610780565b505f815191818352816020840152820152611f406060820152611d4c60808201525f1960a0820152f35b82346100fb57806003193601126100fb576001600160a01b03610289610780565b165f9081526002602052206024359055005b9050346100fb5760603660031901126100fb576102b6610780565b91602435916102c36107ac565b6001600160a01b03858116916102da8315156107c2565b6102e58615156107fe565b1691821561043957815f5260209560068752845f20335f528752845f2054908682106103ff579061031a61032092339061088b565b9061084a565b8086116103f7575b50815f525f8652835f2061033d86825461086b565b9055815f5260068652835f20335f528652835f2061035c86825461086b565b9055815f5260058652835f20335f52865242845f205583519063a9059cbb60e01b8783015283602483015285604483015260448252608082019082821067ffffffffffffffff8311176103e4575084526103b69082610908565b7f56c54ba9bd38d8fd62012e42c7ee564519b09763c426d331b3661b537ead19b2858451868152a351908152f35b604190634e487b7160e01b5f525260245ffd5b94505f610328565b855162461bcd60e51b81528084018990526014602482015273496e73756666696369656e742062616c616e636560601b6044820152606490fd5b606490602085519162461bcd60e51b83528201526012602482015271496e76616c696420746f206164647265737360701b6044820152fd5b82346100fb5760203660031901126100fb576020906001600160a01b0361016d610780565b82346100fb57806003193601126100fb576020906104e86104b5610780565b61031a6104c0610796565b6001600160a01b038381165f908152600688528681209183168152908752859020549261088b565b9051908152f35b82346100fb5760803660031901126100fb57610509610780565b90602435906105166107ac565b916064359361ffff85168095036100fb576001600160a01b039081169361053e8515156107c2565b6105498315156107fe565b16938415610616578251956020906323b872dd60e01b828901523360248901523060448901528360648901526064885260a088019088821067ffffffffffffffff8311176103e457507fb9f27db670c081e21e3981406d212aa9f078019b69843ae23946ce7533379ef29596976105c291865287610908565b855f525f8152835f206105d684825461084a565b9055855f5260068152835f20875f528152835f206105f584825461084a565b9055855f5260058152835f20875f52815242845f20558351928352820152a3005b825162461bcd60e51b8152602081880152601260248201527124b73b30b634b21037b72132b430b63327b360711b6044820152606490fd5b9050346100fb5760203660031901126100fb576101e0916001600160a01b03610675610780565b165f5260026020526fffffffffffffffffffffffffffffffff9182825f20541692600360205280835f20541691602052825f205416918051935f85526b033b2e3c9fd0803ce8000000918260208701528501526060840152608083015260a082015264ffffffffff421660c08201525f60e08201525f6101008201525f6101208201525f6101408201525f6101608201525f6101808201525f6101a08201525f6101c0820152f35b82346100fb57806003193601126100fb57602090610739610780565b610741610796565b9060018060a01b038091165f5260058452825f2091165f528252805f20549051908152f35b346100fb575f3660031901126100fb57806101f460209252f35b600435906001600160a01b03821682036100fb57565b602435906001600160a01b03821682036100fb57565b604435906001600160a01b03821682036100fb57565b156107c957565b60405162461bcd60e51b815260206004820152600d60248201526c125b9d985b1a5908185cdcd95d609a1b6044820152606490fd5b1561080557565b60405162461bcd60e51b815260206004820152601d60248201527f416d6f756e74206d7573742062652067726561746572207468616e20300000006044820152606490fd5b9190820180921161085757565b634e487b7160e01b5f52601160045260245ffd5b9190820391821161085757565b8181029291811591840414171561085757565b60018060a01b0380911690815f52600660205260405f20921691825f5260205260405f2054908115610901576108f86108fd9264496cebb80094835f52600560205260405f20905f526020526108e560405f20544261086b565b925f52600260205260405f205490610878565b610878565b0490565b5050505f90565b905f602091828151910182855af115610962575f513d61095957506001600160a01b0381163b155b6109375750565b604051635274afe760e01b81526001600160a01b039091166004820152602490fd5b60011415610930565b6040513d5f823e3d90fdfea26469706673582212202b151abdd7babaa184b3328709187ebd55ed9b1ebcd2942b62603b0acbe47b5a64736f6c63430008180033","linkReferences":{}},"methodIdentifiers":{"MOCK_APY()":"1bfd9e67","getReserveData(address)":"35ea6a75","getTotalSupply(address)":"68da10ae","getUserAccountData(address)":"bf92857c","getUserBalance(address,address)":"6805d6ad","lastUpdateTime(address,address)":"2f88b48d","liquidityRate(address)":"fe3a8bd2","setLiquidityRate(address,uint256)":"be78ed64","stableBorrowRate(address)":"c4cffa4e","supply(address,uint256,address,uint16)":"617ba037","totalBorrow(address)":"dd6d1954","totalSupply(address)":"e4dc2aa4","userSupply(address,address)":"f1943297","variableBorrowRate(address)":"dad577e5","withdraw(address,uint256,address)":"69328dec"},"id":37}