{"abi":[{"type":"constructor","inputs":[],"stateMutability":"nonpayable"},{"type":"function","name":"authorizedStrategies","inputs":[{"name":"","type":"address","internalType":"address"}],"outputs":[{"name":"","type":"bool","internalType":"bool"}],"stateMutability":"view"},{"type":"function","name":"authorizedVaults","inputs":[{"name":"","type":"address","internalType":"address"}],"outputs":[{"name":"","type":"bool","internalType":"bool"}],"stateMutability":"view"},{"type":"function","name":"canDeposit","inputs":[{"name":"user","type":"address","internalType":"address"}],"outputs":[{"name":"canDeposit","type":"bool","internalType":"bool"},{"name":"timeRemaining","type":"uint256","internalType":"uint256"}],"stateMutability":"view"},{"type":"function","name":"canRebalance","inputs":[{"name":"user","type":"address","internalType":"address"}],"outputs":[{"name":"canRebalance","type":"bool","internalType":"bool"},{"name":"timeRemaining","type":"uint256","internalType":"uint256"}],"stateMutability":"view"},{"type":"function","name":"deposit","inputs":[{"name":"user","type":"address","internalType":"address"},{"name":"vault","type":"address","internalType":"address"},{"name":"amount","type":"uint256","internalType":"uint256"}],"outputs":[],"stateMutability":"nonpayable"},{"type":"function","name":"depositCooldown","inputs":[],"outputs":[{"name":"","type":"uint256","internalType":"uint256"}],"stateMutability":"view"},{"type":"function","name":"emergencyPause","inputs":[],"outputs":[],"stateMutability":"nonpayable"},{"type":"function","name":"getUserTimestamps","inputs":[{"name":"user","type":"address","internalType":"address"}],"outputs":[{"name":"lastRebalance","type":"uint256","internalType":"uint256"},{"name":"lastDeposit","type":"uint256","internalType":"uint256"}],"stateMutability":"view"},{"type":"function","name":"investFunds","inputs":[{"name":"vault","type":"address","internalType":"address"},{"name":"amount","type":"uint256","internalType":"uint256"}],"outputs":[],"stateMutability":"nonpayable"},{"type":"function","name":"maxDepositAmount","inputs":[],"outputs":[{"name":"","type":"uint256","internalType":"uint256"}],"stateMutability":"view"},{"type":"function","name":"maxRebalanceAmount","inputs":[],"outputs":[{"name":"","type":"uint256","internalType":"uint256"}],"stateMutability":"view"},{"type":"function","name":"optimizeStrategy","inputs":[{"name":"user","type":"address","internalType":"address"},{"name":"oldStrategy","type":"address","internalType":"address"},{"name":"newStrategy","type":"address","internalType":"address"},{"name":"amount","type":"uint256","internalType":"uint256"}],"outputs":[],"stateMutability":"nonpayable"},{"type":"function","name":"owner","inputs":[],"outputs":[{"name":"","type":"address","internalType":"address"}],"stateMutability":"view"},{"type":"function","name":"rebalance","inputs":[{"name":"user","type":"address","internalType":"address"},{"name":"fromProtocol","type":"address","internalType":"address"},{"name":"toProtocol","type":"address","internalType":"address"},{"name":"amount","type":"uint256","internalType":"uint256"}],"outputs":[],"stateMutability":"nonpayable"},{"type":"function","name":"rebalanceCooldown","inputs":[],"outputs":[{"name":"","type":"uint256","internalType":"uint256"}],"stateMutability":"view"},{"type":"function","name":"renounceOwnership","inputs":[],"outputs":[],"stateMutability":"nonpayable"},{"type":"function","name":"setAuthorizedStrategy","inputs":[{"name":"strategy","type":"address","internalType":"address"},{"name":"authorized","type":"bool","internalType":"bool"}],"outputs":[],"stateMutability":"nonpayable"},{"type":"function","name":"setAuthorizedVault","inputs":[{"name":"vault","type":"address","internalType":"address"},{"name":"authorized","type":"bool","internalType":"bool"}],"outputs":[],"stateMutability":"nonpayable"},{"type":"function","name":"setCooldowns","inputs":[{"name":"_rebalanceCooldown","type":"uint256","internalType":"uint256"},{"name":"_depositCooldown","type":"uint256","internalType":"uint256"}],"outputs":[],"stateMutability":"nonpayable"},{"type":"function","name":"setMaxAmounts","inputs":[{"name":"_maxRebalanceAmount","type":"uint256","internalType":"uint256"},{"name":"_maxDepositAmount","type":"uint256","internalType":"uint256"}],"outputs":[],"stateMutability":"nonpayable"},{"type":"function","name":"transferOwnership","inputs":[{"name":"newOwner","type":"address","internalType":"address"}],"outputs":[],"stateMutability":"nonpayable"},{"type":"function","name":"userLastDeposit","inputs":[{"name":"","type":"address","internalType":"address"}],"outputs":[{"name":"","type":"uint256","internalType":"uint256"}],"stateMutability":"view"},{"type":"function","name":"userLastRebalance","inputs":[{"name":"","type":"address","internalType":"address"}],"outputs":[{"name":"","type":"uint256","internalType":"uint256"}],"stateMutability":"view"},{"type":"event","name":"DepositExecuted","inputs":[{"name":"user","type":"address","indexed":true,"internalType":"address"},{"name":"vault","type":"address","indexed":true,"internalType":"address"},{"name":"amount","type":"uint256","indexed":false,"internalType":"uint256"},{"name":"timestamp","type":"uint256","indexed":false,"internalType":"uint256"}],"anonymous":false},{"type":"event","name":"OwnershipTransferred","inputs":[{"name":"previousOwner","type":"address","indexed":true,"internalType":"address"},{"name":"newOwner","type":"address","indexed":true,"internalType":"address"}],"anonymous":false},{"type":"event","name":"RebalanceExecuted","inputs":[{"name":"user","type":"address","indexed":true,"internalType":"address"},{"name":"fromProtocol","type":"address","indexed":true,"internalType":"address"},{"name":"toProtocol","type":"address","indexed":true,"internalType":"address"},{"name":"amount","type":"uint256","indexed":false,"internalType":"uint256"},{"name":"timestamp","type":"uint256","indexed":false,"internalType":"uint256"}],"anonymous":false},{"type":"event","name":"StrategyOptimized","inputs":[{"name":"user","type":"address","indexed":true,"internalType":"address"},{"name":"oldStrategy","type":"address","indexed":true,"internalType":"address"},{"name":"newStrategy","type":"address","indexed":true,"internalType":"address"},{"name":"amount","type":"uint256","indexed":false,"internalType":"uint256"},{"name":"timestamp","type":"uint256","indexed":false,"internalType":"uint256"}],"anonymous":false},{"type":"error","name":"OwnableInvalidOwner","inputs":[{"name":"owner","type":"address","internalType":"address"}]},{"type":"error","name":"OwnableUnauthorizedAccount","inputs":[{"name":"account","type":"address","internalType":"address"}]},{"type":"error","name":"ReentrancyGuardReentrantCall","inputs":[]}],"bytecode":{"object":"0x60808060405234610099573315610084575f8054336001600160a01b03198216811783556040519290916001600160a01b0316907f8be0079c531659141344cd1fd0a4f28419497f9722a3daafe3b4186f6b6457e09080a360018055610e10600655610708600755633b9aca0060085564012a05f200600955610da1908161009e8239f35b631e4fbdf760e01b81525f6004820152602490fd5b5f80fdfe604060808152600480361015610013575f80fd5b5f3560e01c90816302c0b06f146109a657816306e506cb14610816578163393b8516146107da57816339606c10146107a3578163497cd59c146107675781634bf0d3311461074157816351858e27146106f55781635dbfe4fd146105ca5781635e35233a146105ab5781636d838e3014610569578163715018a6146105125781637cf088cc146104dd578163821919c91461049e5781638340f549146102ec5781638da5cb5b146102c55781638ed83271146102a7578163b3de272d14610289578163ca1c84d51461026b578163cd123d411461024c578163dcf61a2514610209578163f2fde38b1461017c57508063f81044f51461013b5763fcb0c8ed1461011a575f80fd5b34610137575f366003190112610137576020906007549051908152f35b5f80fd5b50346101375761017a9061014e36610b76565b9190610158610d1d565b60018060a01b03165f5260026020525f209060ff801983541691151516179055565b005b90503461013757602036600319011261013757610197610b09565b906101a0610d1d565b6001600160a01b039182169283156101f35750505f54826bffffffffffffffffffffffff60a01b8216175f55167f8be0079c531659141344cd1fd0a4f28419497f9722a3daafe3b4186f6b6457e05f80a3005b905f6024925191631e4fbdf760e01b8352820152fd5b8234610137576020366003190112610137576102489061022f61022a610b09565b610cfa565b9151901515815260208101919091529081906040820190565b0390f35b346101375761025a36610b60565b90610263610d1d565b600655600755005b8234610137575f366003190112610137576020906008549051908152f35b8234610137575f366003190112610137576020906006549051908152f35b8234610137575f366003190112610137576020906009549051908152f35b8234610137575f366003190112610137575f5490516001600160a01b039091168152602090f35b90503461013757606036600319011261013757610307610b09565b916024356001600160a01b0381811693919291848403610137576044359161032d610d1d565b610335610d48565b855f526020966002885261034e60ff865f205416610ba5565b61035c600954851115610c46565b1693845f5260058752610375845f205460075490610c8b565b421061045b57835187810190636e553f6560e01b8252846024820152866044820152604481526080810181811067ffffffffffffffff821117610448578652515f9283929083905af16103c6610be8565b501561040e57508293947fe1e067eab571218f837c5015c854ebbbc631dc6ec63b28e9deb6718d78a858b7935f526005815242835f205582519182524290820152a360018055005b825162461bcd60e51b8152908101869052601460248201527315985d5b1d0819195c1bdcda5d0819985a5b195960621b6044820152606490fd5b604185634e487b7160e01b5f525260245ffd5b835162461bcd60e51b8152808301889052601860248201527f4465706f73697420636f6f6c646f776e206e6f74206d657400000000000000006044820152606490fd5b82346101375761017a906104b136610b76565b91906104bb610d1d565b60018060a01b03165f5260036020525f209060ff801983541691151516179055565b8234610137576020366003190112610137576020916001600160a01b03610502610b09565b165f528252805f20549051908152f35b34610137575f3660031901126101375761052a610d1d565b5f80546001600160a01b0319811682556001600160a01b03167f8be0079c531659141344cd1fd0a4f28419497f9722a3daafe3b4186f6b6457e08280a3005b905034610137576020366003190112610137576001600160a01b0361058c610b09565b165f52602052805f20546005602052815f205482519182526020820152f35b34610137576105b936610b60565b906105c2610d1d565b600855600955005b8234610137576105d936610b1f565b926105e694929194610d1d565b6105ee610d48565b6001600160a01b039182165f81815260036020528490205490959060ff16156106b257821695865f52600360205260ff845f2054161561066f5750907f55337e75570f08703fa706820229c85a1f282bdfe8322e555cb0291eaff7164a929161065b600854861115610c46565b82519485524260208601521692a460018055005b606490602085519162461bcd60e51b8352820152601b60248201527f4e6577207374726174656779206e6f7420617574686f72697a656400000000006044820152fd5b835162461bcd60e51b8152602081890152601b60248201527f4f6c64207374726174656779206e6f7420617574686f72697a656400000000006044820152606490fd5b8234610137575f366003190112610137575f807f55337e75570f08703fa706820229c85a1f282bdfe8322e555cb0291eaff7164a8193610733610d1d565b8051838152426020820152a4005b8234610137576020366003190112610137576102489061022f610762610b09565b610cb9565b8234610137576020366003190112610137576020906001600160a01b0361078c610b09565b165f526003825260ff815f20541690519015158152f35b8234610137576020366003190112610137576020906001600160a01b036107c8610b09565b165f5260058252805f20549051908152f35b8234610137576020366003190112610137576020906001600160a01b036107ff610b09565b165f526002825260ff815f20541690519015158152f35b82346101375761082536610b1f565b90610834959395949294610d1d565b61083c610d48565b60018060a01b0380951694855f526020916003835260ff855f2054161561096357811696875f526003835260ff855f2054161561092057610881600854851115610c46565b1693845f52808252610899845f205460065490610c8b565b42106108df57907fb4779ce20f13e0db1ac9505c4e8b2a0c1be90171229325baf92ed379831af3ba939291855f52815242835f205582519182524290820152a460018055005b60649184519162461bcd60e51b8352820152601a60248201527f526562616c616e636520636f6f6c646f776e206e6f74206d65740000000000006044820152fd5b845162461bcd60e51b8152808701849052601a60248201527f546f2070726f746f636f6c206e6f7420617574686f72697a65640000000000006044820152606490fd5b845162461bcd60e51b8152808701849052601c60248201527f46726f6d2070726f746f636f6c206e6f7420617574686f72697a6564000000006044820152606490fd5b82346101375780600319360112610137576109bf610b09565b916024908135916109ce610d1d565b6109d6610d48565b60018060a01b03851694855f5260026020526109f760ff865f205416610ba5565b8315610ac757845160208101906255f9e960e71b825285848201528381526060810181811067ffffffffffffffff821117610ab5578752515f9283929083905af1610a40610be8565b5015610a7d57845f7fe1e067eab571218f837c5015c854ebbbc631dc6ec63b28e9deb6718d78a858b786868151908152426020820152a360018055005b906013606492602086519362461bcd60e51b85528401528201527215985d5b1d081a5b9d995cdd0819985a5b1959606a1b6044820152fd5b84604187634e487b7160e01b5f52525ffd5b845162461bcd60e51b8152602081850152601d818401527f416d6f756e74206d7573742062652067726561746572207468616e20300000006044820152606490fd5b600435906001600160a01b038216820361013757565b6080906003190112610137576001600160a01b0360043581811681036101375791602435828116810361013757916044359081168103610137579060643590565b6040906003190112610137576004359060243590565b6040906003190112610137576004356001600160a01b0381168103610137579060243580151581036101375790565b15610bac57565b60405162461bcd60e51b815260206004820152601460248201527315985d5b1d081b9bdd08185d5d1a1bdc9a5e995960621b6044820152606490fd5b3d15610c415767ffffffffffffffff903d828111610c2d5760405192601f8201601f19908116603f0116840190811184821017610c2d5760405282523d5f602084013e565b634e487b7160e01b5f52604160045260245ffd5b606090565b15610c4d57565b60405162461bcd60e51b8152602060048201526016602482015275416d6f756e742065786365656473206d6178696d756d60501b6044820152606490fd5b91908201809211610c9857565b634e487b7160e01b5f52601160045260245ffd5b91908203918211610c9857565b6001600160a01b03165f90815260056020526040902054600754610cdc91610c8b565b428111610ceb57506001905f90565b610cf6904290610cac565b5f91565b6001600160a01b03165f90815260046020526040902054600654610cdc91610c8b565b5f546001600160a01b03163303610d3057565b60405163118cdaa760e01b8152336004820152602490fd5b600260015414610d59576002600155565b604051633ee5aeb560e01b8152600490fdfea26469706673582212207b0fc0b72c91f77f4ba7c60251fbeb525ca792971e2bbbe2aa556695bb54244064736f6c63430008180033","linkReferences":{}},"methodIdentifiers":{"authorizedStrategies(address)":"497cd59c","authorizedVaults(address)":"393b8516","canDeposit(address)":"4bf0d331","canRebalance(address)":"dcf61a25","deposit(address,address,uint256)":"8340f549","depositCooldown()":"fcb0c8ed","emergencyPause()":"51858e27","getUserTimestamps(address)":"6d838e30","investFunds(address,uint256)":"02c0b06f","maxDepositAmount()":"8ed83271","maxRebalanceAmount()":"ca1c84d5","optimizeStrategy(address,address,address,uint256)":"5dbfe4fd","owner()":"8da5cb5b","rebalance(address,address,address,uint256)":"06e506cb","rebalanceCooldown()":"b3de272d","renounceOwnership()":"715018a6","setAuthorizedStrategy(address,bool)":"821919c9","setAuthorizedVault(address,bool)":"f81044f5","setCooldowns(uint256,uint256)":"cd123d41","setMaxAmounts(uint256,uint256)":"5e35233a","transferOwnership(address)":"f2fde38b","userLastDeposit(address)":"39606c10","userLastRebalance(address)":"7cf088cc"},"id":36}