{"abi":[{"type":"constructor","inputs":[{"name":"_asset","type":"address","internalType":"address"}],"stateMutability":"nonpayable"},{"type":"function","name":"agentExecutor","inputs":[],"outputs":[{"name":"","type":"address","internalType":"address"}],"stateMutability":"view"},{"type":"function","name":"asset","inputs":[],"outputs":[{"name":"","type":"address","internalType":"contract IERC20"}],"stateMutability":"view"},{"type":"function","name":"convertToAssets","inputs":[{"name":"sharesAmount","type":"uint256","internalType":"uint256"}],"outputs":[{"name":"","type":"uint256","internalType":"uint256"}],"stateMutability":"pure"},{"type":"function","name":"convertToShares","inputs":[{"name":"assets","type":"uint256","internalType":"uint256"}],"outputs":[{"name":"","type":"uint256","internalType":"uint256"}],"stateMutability":"pure"},{"type":"function","name":"deposit","inputs":[{"name":"assets","type":"uint256","internalType":"uint256"},{"name":"receiver","type":"address","internalType":"address"}],"outputs":[{"name":"","type":"uint256","internalType":"uint256"}],"stateMutability":"nonpayable"},{"type":"function","name":"depositWithRisk","inputs":[{"name":"amount","type":"uint256","internalType":"uint256"},{"name":"riskLevel","type":"uint8","internalType":"enum FiYieldVault.RiskLevel"}],"outputs":[],"stateMutability":"nonpayable"},{"type":"function","name":"getBalance","inputs":[{"name":"user","type":"address","internalType":"address"}],"outputs":[{"name":"","type":"uint256","internalType":"uint256"}],"stateMutability":"view"},{"type":"function","name":"getRiskLevel","inputs":[{"name":"user","type":"address","internalType":"address"}],"outputs":[{"name":"","type":"uint8","internalType":"enum FiYieldVault.RiskLevel"}],"stateMutability":"view"},{"type":"function","name":"invest","inputs":[{"name":"amount","type":"uint256","internalType":"uint256"}],"outputs":[],"stateMutability":"nonpayable"},{"type":"function","name":"maxDeposit","inputs":[{"name":"","type":"address","internalType":"address"}],"outputs":[{"name":"","type":"uint256","internalType":"uint256"}],"stateMutability":"pure"},{"type":"function","name":"maxMint","inputs":[{"name":"","type":"address","internalType":"address"}],"outputs":[{"name":"","type":"uint256","internalType":"uint256"}],"stateMutability":"pure"},{"type":"function","name":"maxRedeem","inputs":[{"name":"owner","type":"address","internalType":"address"}],"outputs":[{"name":"","type":"uint256","internalType":"uint256"}],"stateMutability":"view"},{"type":"function","name":"maxWithdraw","inputs":[{"name":"owner","type":"address","internalType":"address"}],"outputs":[{"name":"","type":"uint256","internalType":"uint256"}],"stateMutability":"view"},{"type":"function","name":"owner","inputs":[],"outputs":[{"name":"","type":"address","internalType":"address"}],"stateMutability":"view"},{"type":"function","name":"previewDeposit","inputs":[{"name":"assets","type":"uint256","internalType":"uint256"}],"outputs":[{"name":"","type":"uint256","internalType":"uint256"}],"stateMutability":"pure"},{"type":"function","name":"previewMint","inputs":[{"name":"sharesAmount","type":"uint256","internalType":"uint256"}],"outputs":[{"name":"","type":"uint256","internalType":"uint256"}],"stateMutability":"pure"},{"type":"function","name":"previewRedeem","inputs":[{"name":"sharesAmount","type":"uint256","internalType":"uint256"}],"outputs":[{"name":"","type":"uint256","internalType":"uint256"}],"stateMutability":"pure"},{"type":"function","name":"previewWithdraw","inputs":[{"name":"assets","type":"uint256","internalType":"uint256"}],"outputs":[{"name":"","type":"uint256","internalType":"uint256"}],"stateMutability":"pure"},{"type":"function","name":"rebalance","inputs":[{"name":"user","type":"address","internalType":"address"},{"name":"fromProtocol","type":"address","internalType":"address"},{"name":"toProtocol","type":"address","internalType":"address"},{"name":"amount","type":"uint256","internalType":"uint256"}],"outputs":[],"stateMutability":"nonpayable"},{"type":"function","name":"redeem","inputs":[{"name":"sharesAmount","type":"uint256","internalType":"uint256"},{"name":"receiver","type":"address","internalType":"address"},{"name":"owner","type":"address","internalType":"address"}],"outputs":[{"name":"","type":"uint256","internalType":"uint256"}],"stateMutability":"nonpayable"},{"type":"function","name":"renounceOwnership","inputs":[],"outputs":[],"stateMutability":"nonpayable"},{"type":"function","name":"setAgentExecutor","inputs":[{"name":"_agentExecutor","type":"address","internalType":"address"}],"outputs":[],"stateMutability":"nonpayable"},{"type":"function","name":"setStrategy","inputs":[{"name":"_strategy","type":"address","internalType":"address"}],"outputs":[],"stateMutability":"nonpayable"},{"type":"function","name":"shares","inputs":[{"name":"","type":"address","internalType":"address"}],"outputs":[{"name":"","type":"uint256","internalType":"uint256"}],"stateMutability":"view"},{"type":"function","name":"strategy","inputs":[],"outputs":[{"name":"","type":"address","internalType":"address"}],"stateMutability":"view"},{"type":"function","name":"totalAssets","inputs":[],"outputs":[{"name":"","type":"uint256","internalType":"uint256"}],"stateMutability":"view"},{"type":"function","name":"totalSupply","inputs":[],"outputs":[{"name":"","type":"uint256","internalType":"uint256"}],"stateMutability":"view"},{"type":"function","name":"transferOwnership","inputs":[{"name":"newOwner","type":"address","internalType":"address"}],"outputs":[],"stateMutability":"nonpayable"},{"type":"function","name":"userBalances","inputs":[{"name":"","type":"address","internalType":"address"}],"outputs":[{"name":"","type":"uint256","internalType":"uint256"}],"stateMutability":"view"},{"type":"function","name":"userRiskLevels","inputs":[{"name":"","type":"address","internalType":"address"}],"outputs":[{"name":"","type":"uint8","internalType":"enum FiYieldVault.RiskLevel"}],"stateMutability":"view"},{"type":"function","name":"withdraw","inputs":[{"name":"amount","type":"uint256","internalType":"uint256"}],"outputs":[],"stateMutability":"nonpayable"},{"type":"event","name":"Deposit","inputs":[{"name":"user","type":"address","indexed":true,"internalType":"address"},{"name":"amount","type":"uint256","indexed":false,"internalType":"uint256"},{"name":"riskLevel","type":"uint8","indexed":false,"internalType":"enum FiYieldVault.RiskLevel"}],"anonymous":false},{"type":"event","name":"Invested","inputs":[{"name":"amount","type":"uint256","indexed":false,"internalType":"uint256"}],"anonymous":false},{"type":"event","name":"OwnershipTransferred","inputs":[{"name":"previousOwner","type":"address","indexed":true,"internalType":"address"},{"name":"newOwner","type":"address","indexed":true,"internalType":"address"}],"anonymous":false},{"type":"event","name":"Rebalanced","inputs":[{"name":"user","type":"address","indexed":true,"internalType":"address"},{"name":"fromProtocol","type":"address","indexed":false,"internalType":"address"},{"name":"toProtocol","type":"address","indexed":false,"internalType":"address"},{"name":"amount","type":"uint256","indexed":false,"internalType":"uint256"}],"anonymous":false},{"type":"event","name":"StrategySet","inputs":[{"name":"strategy","type":"address","indexed":true,"internalType":"address"}],"anonymous":false},{"type":"event","name":"Withdraw","inputs":[{"name":"user","type":"address","indexed":true,"internalType":"address"},{"name":"amount","type":"uint256","indexed":false,"internalType":"uint256"}],"anonymous":false},{"type":"error","name":"OwnableInvalidOwner","inputs":[{"name":"owner","type":"address","internalType":"address"}]},{"type":"error","name":"OwnableUnauthorizedAccount","inputs":[{"name":"account","type":"address","internalType":"address"}]},{"type":"error","name":"ReentrancyGuardReentrantCall","inputs":[]}],"bytecode":{"object":"0x60a0346100eb57601f61131d38819003918201601f19168301916001600160401b038311848410176100ef578084926020946040528339810103126100eb57516001600160a01b0390818116908190036100eb5733156100d3575f543360018060a01b03198216175f55604051923391167f8be0079c531659141344cd1fd0a4f28419497f9722a3daafe3b4186f6b6457e05f80a360018055608052611219908161010482396080518181816103c70152818161063e015281816108180152818161092401528181610a670152610ba20152f35b604051631e4fbdf760e01b81525f6004820152602490fd5b5f80fd5b634e487b7160e01b5f52604160045260245ffdfe6080604090808252600480361015610015575f80fd5b5f3560e01c91826301e1d11414610f645750816306e506cb14610e3d57816307a2d13a146102325781630a28a477146102325781631615f2d41461026e57816318160ddd14610e1f57816326224c6414610dea5781632afcf48014610b2e5781632e1a7d4d146109b957816333a100ca1461095357816338d52e0f14610910578163402d267d146102af5781634cdad506146102325781636e553f651461079a578163715018a6146107435781637e08a164146105d55781638da5cb5b146105ae578163968ddd171461056b578163a8c62e7614610543578163b3d7f6b914610232578163ba087652146102b4578163c63d75b6146102af578163c6e6f59214610232578163ce7c2ac214610237578163ce96cb77146101a0578163d241cce31461026e578163d905777e14610237578163ef8b30f714610232578163f2fde38b146101a557508063f8b2cb4f146101a05763fe18c79814610175575f80fd5b3461019c575f36600319011261019c5760025490516001600160a01b039091168152602090f35b5f80fd5b611023565b90503461019c57602036600319011261019c576101c0610f7e565b906101c96111b8565b6001600160a01b0391821692831561021c5750505f54826bffffffffffffffffffffffff60a01b8216175f55167f8be0079c531659141344cd1fd0a4f28419497f9722a3daafe3b4186f6b6457e05f80a3005b905f6024925191631e4fbdf760e01b8352820152fd5b610fc0565b823461019c57602036600319011261019c576020906001600160a01b0361025c610f7e565b165f5260068252805f20549051908152f35b823461019c57602036600319011261019c576020906001600160a01b03610293610f7e565b165f52600582526102ad60ff825f20541691518092610fdd565bf35b610ffe565b823461019c57606036600319011261019c578135906102d1610f94565b6102d9610faa565b6102e1611195565b831561050f576001600160a01b039081906102ff8483161515611149565b16918233036104db57835163673e156160e11b8152868101849052602096908781602481305afa9081156104d1575f916104a4575b50861161046b576103c39287925f88938782528086528882206103588682546110a9565b90558782526006865288822061036f8682546110a9565b905561037d856007546110a9565b60075561038c856008546110a9565b600855885163a9059cbb60e01b81526001600160a01b03909316908301908152602081019490945290948593849291839160400190565b03927f0000000000000000000000000000000000000000000000000000000000000000165af19081156104615790610402915f91610434575b506110ca565b7f884edad9ce6fa2440d8a54cc123490eb96d2768479d49ff9c7366125a9424364848351858152a26001805551908152f35b6104549150863d881161045a575b61044c818361105b565b810190611091565b866103fc565b503d610442565b83513d5f823e3d90fd5b845162461bcd60e51b81529081018790526013602482015272496e73756666696369656e742073686172657360681b6044820152606490fd5b90508781813d83116104ca575b6104bb818361105b565b8101031261019c575188610334565b503d6104b1565b86513d5f823e3d90fd5b835162461bcd60e51b8152602081880152600e60248201526d139bdd08185d5d1a1bdc9a5e995960921b6044820152606490fd5b825162461bcd60e51b8152602081870152600e60248201526d496e76616c69642073686172657360901b6044820152606490fd5b823461019c575f36600319011261019c5760035490516001600160a01b039091168152602090f35b3461019c57602036600319011261019c57610584610f7e565b61058c6111b8565b600280546001600160a01b0319166001600160a01b0392909216919091179055005b823461019c575f36600319011261019c575f5490516001600160a01b039091168152602090f35b823461019c578060031936011261019c5781359160243590600382101561019c576105fe611195565b610609841515611108565b82516323b872dd60e01b815233828201908152306020828101919091526040820187905292919083908290819060600103815f7f00000000000000000000000000000000000000000000000000000000000000006001600160a01b03165af190811561073957916106a861071394927ff763e680fce25a97ffd55d8b705370c98b47b2285f7b3b2900c43606fd4180459796945f9161071c57506110ca565b335f528152835f206106bb878254611188565b9055335f5260058152835f2060ff1981541660ff841617905560068152835f206106e6878254611188565b90556106f486600754611188565b60075561070386600854611188565b6008558351958652850190610fdd565b3392a260018055005b6107339150843d861161045a5761044c818361105b565b896103fc565b85513d5f823e3d90fd5b3461019c575f36600319011261019c5761075b6111b8565b5f80546001600160a01b0319811682556001600160a01b03167f8be0079c531659141344cd1fd0a4f28419497f9722a3daafe3b4186f6b6457e08280a3005b823461019c578060031936011261019c578135906107b6610f94565b926107bf611195565b6107ca831515611108565b6001600160a01b03938416906107e1821515611149565b82516323b872dd60e01b815233828201908152306020828101919091526040820187905296879183919082905f90829060600103927f0000000000000000000000000000000000000000000000000000000000000000165af19081156109065790610852915f916108e957506110ca565b815f528452815f20610865848254611188565b9055805f5260068452815f2061087c848254611188565b905561088a83600754611188565b60075561089983600854611188565b600855805f5260058452815f20600160ff198254161790557ff763e680fce25a97ffd55d8b705370c98b47b2285f7b3b2900c43606fd418045828051858152600187820152a26001805551908152f35b6109009150873d891161045a5761044c818361105b565b876103fc565b84513d5f823e3d90fd5b823461019c575f36600319011261019c57517f00000000000000000000000000000000000000000000000000000000000000006001600160a01b03168152602090f35b3461019c57602036600319011261019c5761096c610f7e565b6109746111b8565b600380546001600160a01b0319166001600160a01b039290921691821790557fe70d79dad95c835bdd87e9cf4665651c9e5abb3b756e4fd2bf45f29c95c3aa405f80a2005b90503461019c5760208060031936011261019c578135916109d8611195565b335f5280825282845f205410610af6578183610a6292335f52808352865f20610a028382546110a9565b9055335f5260068352865f20610a198382546110a9565b9055610a27826007546110a9565b600755610a36826008546110a9565b600855865163a9059cbb60e01b8152339181019182526020820192909252909283918291604090910190565b03815f7f00000000000000000000000000000000000000000000000000000000000000006001600160a01b03165af1908115610906577f884edad9ce6fa2440d8a54cc123490eb96d2768479d49ff9c7366125a9424364939491610acc915f91610ad957506110ca565b519283523392a260018055005b610af09150843d861161045a5761044c818361105b565b5f6103fc565b60649184519162461bcd60e51b83528201526014602482015273496e73756666696369656e742062616c616e636560601b6044820152fd5b90503461019c576020908160031936011261019c57600254813591906001600160a01b039081163303610daf5780600354168015610d79576008548411610d4057855163a9059cbb60e01b81526001600160a01b039091168382019081526020810185905285908290819060400103815f867f0000000000000000000000000000000000000000000000000000000000000000165af19081156104d1575f91610d23575b5015610ce057600354168451908482016255f9e960e71b815284602484015260248352606083019267ffffffffffffffff9381811085821117610ccd578852515f9283929083905af1903d15610cc7573d908111610cb457855190610c40601f8201601f191687018361105b565b81525f853d92013e5b15610c7857507fac9f7997c30b6a3cc9c74953898b5de154359339c7ec0d6d70ceb98e55db1a4b9251908152a1005b835162461bcd60e51b8152908101839052601660248201527514dd1c985d1959de481a5b9d995cdd0819985a5b195960521b6044820152606490fd5b604183634e487b7160e01b5f525260245ffd5b50610c49565b604186634e487b7160e01b5f525260245ffd5b845162461bcd60e51b8152808301859052601b60248201527f5472616e7366657220746f207374726174656779206661696c656400000000006044820152606490fd5b610d3a9150853d871161045a5761044c818361105b565b5f610bd2565b855162461bcd60e51b81528084018690526013602482015272496e73756666696369656e742061737365747360681b6044820152606490fd5b855162461bcd60e51b8152808401869052601060248201526f14dd1c985d1959de481b9bdd081cd95d60821b6044820152606490fd5b845162461bcd60e51b8152808301859052601560248201527413db9b1e481859d95b9d0818d85b881a5b9d995cdd605a1b6044820152606490fd5b823461019c57602036600319011261019c576020916001600160a01b03610e0f610f7e565b165f528252805f20549051908152f35b823461019c575f36600319011261019c576020906007549051908152f35b90503461019c57608036600319011261019c57610e58610f7e565b610e60610f94565b610e68610faa565b6002549092606435916001600160a01b03919082163303610f21571693845f528060205281865f205410610ede575093516001600160a01b039182168152911660208201526040810192909252907fe26365f32dd2a1a1a322c5fba39361fcd955999bdabd2121b6864894790cded490606090a2005b606490602087519162461bcd60e51b8352820152601960248201527f496e73756666696369656e7420757365722062616c616e6365000000000000006044820152fd5b865162461bcd60e51b8152602081880152601860248201527f4f6e6c79206167656e742063616e20726562616c616e636500000000000000006044820152606490fd5b3461019c575f36600319011261019c576020906008548152f35b600435906001600160a01b038216820361019c57565b602435906001600160a01b038216820361019c57565b604435906001600160a01b038216820361019c57565b3461019c57602036600319011261019c5760206040516004358152f35b906003821015610fea5752565b634e487b7160e01b5f52602160045260245ffd5b3461019c57602036600319011261019c57611017610f7e565b5060206040515f198152f35b3461019c57602036600319011261019c576001600160a01b03611044610f7e565b165f526004602052602060405f2054604051908152f35b90601f8019910116810190811067ffffffffffffffff82111761107d57604052565b634e487b7160e01b5f52604160045260245ffd5b9081602091031261019c5751801515810361019c5790565b919082039182116110b657565b634e487b7160e01b5f52601160045260245ffd5b156110d157565b60405162461bcd60e51b815260206004820152600f60248201526e151c985b9cd9995c8819985a5b1959608a1b6044820152606490fd5b1561110f57565b60405162461bcd60e51b81526020600482015260126024820152710416d6f756e74206d757374206265203e20360741b6044820152606490fd5b1561115057565b60405162461bcd60e51b815260206004820152601060248201526f24b73b30b634b2103932b1b2b4bb32b960811b6044820152606490fd5b919082018092116110b657565b6002600154146111a6576002600155565b604051633ee5aeb560e01b8152600490fd5b5f546001600160a01b031633036111cb57565b60405163118cdaa760e01b8152336004820152602490fdfea2646970667358221220e43c6d5ad608ff4301e407bfb16530b4448c8c0453c3862fae3aed420c00963c64736f6c63430008180033","linkReferences":{}},"methodIdentifiers":{"agentExecutor()":"fe18c798","asset()":"38d52e0f","convertToAssets(uint256)":"07a2d13a","convertToShares(uint256)":"c6e6f592","deposit(uint256,address)":"6e553f65","depositWithRisk(uint256,uint8)":"7e08a164","getBalance(address)":"f8b2cb4f","getRiskLevel(address)":"1615f2d4","invest(uint256)":"2afcf480","maxDeposit(address)":"402d267d","maxMint(address)":"c63d75b6","maxRedeem(address)":"d905777e","maxWithdraw(address)":"ce96cb77","owner()":"8da5cb5b","previewDeposit(uint256)":"ef8b30f7","previewMint(uint256)":"b3d7f6b9","previewRedeem(uint256)":"4cdad506","previewWithdraw(uint256)":"0a28a477","rebalance(address,address,address,uint256)":"06e506cb","redeem(uint256,address,address)":"ba087652","renounceOwnership()":"715018a6","setAgentExecutor(address)":"968ddd17","setStrategy(address)":"33a100ca","shares(address)":"ce7c2ac2","strategy()":"a8c62e76","totalAssets()":"01e1d114","totalSupply()":"18160ddd","transferOwnership(address)":"f2fde38b","userBalances(address)":"26224c64","userRiskLevels(address)":"d241cce3","withdraw(uint256)":"2e1a7d4d"},"id":38}